:0400000007EF00F016
:100008004C8293ED0DF0C9EF0FF0DE0E0001EA6FA0
:10001800000EEB6F9EEF04F0250EFF19D8B408D040
:10002800DAC0D9FFDBC0DAFFFFC0DFFF9CEF04F0C6
:10003800000EF96F000EF86F000EF76F000EF66FE6
:1000480004D00001F685DC4BDD2BDCC0F6FFDDC0FB
:10005800F7FF0800F550300AD8B4F3D7DCC0F6FF34
:10006800DDC0F7FF0800F55053EC11F0D8A034D0EC
:10007800000E0001F96F000EF86FF8C022F0F9C009
:1000880023F0000E256E0A0E246E2EEC11F022C00D
:10009800F8F023C0F9F0D00E0001E16FFF0EE26F17
:1000A800DCC0F6FFDDC0F7FF0800F550E36FE46B36
:1000B800E151E327E251E423E351F827E451F9231E
:1000C800DC4BDD2BDCC0F6FFDDC0F7FF0800F55088
:1000D80053EC11F0D8B0D1D7DCC0F6FFDDC0F7FF84
:1000E8000800F5502E0AD8A430D00001F78DDC4B5B
:1000F800DD2B000EFE6F000EFD6F1CD0FDC022F040
:10010800FEC023F0000E256E0A0E246E2EEC11F0B0
:10011800DCC0F6FFDDC0F7FF0800F5502226000E10
:100128002322D00E22240001FD6FFF0E2320FE6F34
:10013800DC4BDD2BDCC0F6FFDDC0F7FF0800F55017
:1001480053EC11F0D8A00AD0D9D7000E0001FE6FE9
:10015800000EFD6FF78902D0F78512D0DCC0F6FFDC
:10016800DDC0F7FF0001DC4BDD2B0800F5CFFFF009
:10017800FF51000AD8B4EBD3660AD8B4EDD7DAD366
:10018800070EF715D8B427D3F7A904D0000EFE6FD1
:10019800060EFD6FEAC0D9FFEBC0DAFFDECFFAF03A
:1001A800DECFFBF0DDCFFCF0030EEA27000EEB23D9
:1001B800FCAF11D0FAC014F0FBC015F0FCC016F06B
:1001C80041EC11F014C0FAF015C0FBF016C0FCF0B9
:1001D800030E0001F613000EF56F000EF46FFA51CE
:1001E800FB11FC11D8B486D0820EE16FFF0EE26FCE
:1001F800FAC0E3F0FBC0E4F0FCC0E5F0FDC0E6F0B7
:10020800100E05D0D890E633E533E433E333E82E17
:10021800F9D7E351E125F46F000EE221F56FF407F9
:10022800D8A0F507F4C022F0F5C023F0000E256E23
:10023800030E246E2EEC11F022C0F4F023C0F5F06A
:10024800F4C01AF0F5C01BF0000E1D6E0A0E1C6EED
:1002580032EC0EF01AC0F4F01BC0F5F00001F5AF57
:1002680003D0F407D8A0F507F4510008B2EC04F065
:1002780037C0F0F038C0F1F039C0F2F0F0C028F023
:10028800F1C029F0F2C02AF0FAC02BF0FBC02CF024
:10029800FCC02DF003EC0CF028C0F0F029C0F1F000
:1002A8002AC0F2F0F0C014F0F1C015F0F2C016F058
:1002B800000E176E800E186E3F0E196EEAEC0DF0E8
:1002C800D8B005D00001F407D8A0F50713D0F0C0C6
:1002D80014F0F1C015F0F2C016F0000E176E200EE3
:1002E800186E410E196EEAEC0DF0D8A003D000018B
:1002F800F44BF52B0001FEBF06D0FE511BE10D0E9D
:10030800FD5DD8B017D0FAC0CBF0FBC0CCF0FCC074
:10031800CDF0FD5156EC08F037C0CEF038C0CFF024
:1003280039C0D0F083EC09F0CBC0FAF0CCC0FBF0B8
:10033800CDC0FCF00001F5BF06D0F5511FE10A0E53
:10034800F45DD8B01BD0FA51FB11FC11D8B455D0CC
:10035800FAC0C4F0FBC0C5F0FCC0C6F087EC0BF0D7
:100368000001C451C511C611C711D8B4F5BF45D095
:10037800F55104E1020EF45DD8A03FD0F0C014F0AE
:10038800F1C015F0F2C016F0700E176E890E186ED7
:10039800400E196EEAEC0DF0D8B003D00001F70E4C
:1003A80002D00001F80EF427FF0EF523F451B2EC49
:1003B80004F037C0F0F038C0F1F039C0F2F0FAC0FC
:1003C80014F0FBC015F0FCC016F0F0C017F0F1C037
:1003D80018F0F2C019F05AEC0AF014C0ECF015C08D
:1003E800EDF016C0EEF017C0EFF0000E0001FA6F46
:1003F800000EFB6F000EFC6F33D0FAC0C4F0FBC0D8
:10040800C5F0FCC0C6F087EC0BF0C4C0ECF0C5C06A
:10041800EDF0C6C0EEF0C7C0EFF0FAC0D4F0FBC0F4
:10042800D5F0FCC0D6F0ECC01CF0EDC01DF0EEC05D
:100438001EF0EFC01FF020EC0FF01CC0D7F01DC05D
:10044800D8F01EC0D9F09CEC10F0D4C0FAF0D5C09A
:10045800FBF0D6C0FCF0000E0001F56F000EF46F43
:10046800010EFF6F0A0EFF19D8B418D0FF51040D02
:10047800DD0EF324F66E5E0EF420F76E0900F550DB
:10048800EC5D0900F550ED590900F550EE590900E9
:10049800F550EF59D8A002D0FF2BE4D7FFC0E1F008
:1004A800E26BE1BFE207FD51E127FE51E223F4517F
:1004B800E127F551E223E151F85FE251F95BFD5183
:1004C800FE11D8B403D0F807D8A0F907030EF61523
:1004D800E16F000EF715E26FE151E211D8B403D0D5
:1004E800F807D8A0F907F6A531D0030EF615E16F85
:1004F800000EF715E26FE151E211D8B414D0DAC05A
:10050800D9FFDBC0DAFF2D0EDF6EDA4BDB2B0BD009
:10051800DAC0D9FFDBC0DAFF300EDF6EDA4BDB2B37
:10052800F807D8A0F907F9BF72D0F951F1E1F80539
:10053800D8A06DD0EDD7DAC0D9FFDBC0DAFF200E26
:10054800DF6EDA4BDB2BF807D8A0F907F9BF05D027
:10055800F951F1E1F805D8B0EED7030EF615E16FC1
:10056800000EF715E26FE151E211D8B450D0DAC0AD
:10057800D9FFDBC0DAFF2D0E47D0ECC014F0EDC078
:1005880015F0EEC016F0EFC017F0FF51040DDD0EA8
:10059800F324F66E5E0EF420F76E0900F5CF18F01E
:1005A8000900F5CF19F00900F5CF1AF00A00F5CFC8
:1005B8001BF074EC0EF014C0F0F015C0F1F016C08A
:1005C800F2F017C0F3F0F0C014F0F1C015F0F2C06B
:1005D80016F0F3C017F00A0E186E000E196E000E12
:1005E8001A6E000E1B6EEDEC0EF014C0F0F015C084
:1005F800F1F016C0F2F017C0F3F00001F051300F1F
:10060800DAC0D9FFDBC0DAFFDF6EDA4BDB2BFF077E
:10061800FF29D8B40CD0B1D7DAC0D9FFDBC0DAFFD4
:10062800300EDF6EDA4BDB2BF407D8A0F507F5BFE9
:1006380005D0F551F1E1F405D8B0EED7FEBF09D0E9
:10064800FE5104E1090EFD5DD8A003D0080EFF6F2E
:1006580002D0FDC0FFF0FF51FD5F000EFFBFFF0E8F
:10066800FE5BFF51D8B408D0DAC0D9FFDBC0DAFF8F
:100678002E0EDF6EDA4BDB2BFF51B2EC04F037C0E5
:10068800E7F038C0E8F039C0E9F0FAC02BF0FBC059
:100698002CF0FCC02DF0E7C028F0E8C029F0E9C034
:1006A8002AF003EC0CF028C0C4F029C0C5F02AC019
:1006B800C6F087EC0BF0C4C0ECF0C5C0EDF0C6C0C6
:1006C800EEF0C7C0EFF071D0ECC014F0EDC015F03B
:1006D800EEC016F0EFC017F00001FF51040DDD0E5B
:1006E800F324F66E5E0EF420F76E0900F5CF18F0CD
:1006F8000900F5CF19F00900F5CF1AF00A00F5CF77
:100708001BF074EC0EF014C0F0F015C0F1F016C038
:10071800F2F017C0F3F0F0C014F0F1C015F0F2C019
:1007280016F0F3C017F00A0E186E000E196E000EC0
:100738001A6E000E1B6EEDEC0EF014C0F0F015C032
:10074800F1F016C0F2F017C0F3F00001F051300FCD
:10075800DAC0D9FFDBC0DAFFDF6EDA4BDB2BECC087
:1007680014F0EDC015F0EEC016F0EFC017F0FF5111
:10077800040DDD0EF324F66E5E0EF420F76E09000C
:10078800F5CF18F00900F5CF19F00900F5CF1AF0E8
:100798000A00F5CF1BF0EDEC0EF014C0ECF015C01C
:1007A800EDF016C0EEF017C0EFF00001FF07FF29CB
:1007B800D8B40CD089D7DAC0D9FFDBC0DAFF300E45
:1007C800DF6EDA4BDB2BFD07D8A0FE07FD51FE11CB
:1007D800D8B4B0D0F0D7FD51FE11D8A408D0EC5150
:1007E800ED11EE11EF11D8A402D0FD4BFE2B800EB7
:1007F800FFBF7F0EE16FFD51FF5DFE51800AE15999
:10080800D8B003D0FDC0FFF010D0FE51800AE16FD0
:10081800FF51FD5D800EFFBF7F0EE159D8B005D0B6
:10082800FF51FD6FFE6BFDBFFE07F851F911D8B4FB
:100838000DD0030EF615E16F000EF715E26FE151CA
:10084800E211D8B403D0F807D8A0F907F7AD13D050
:10085800F851FD5DFE51800AE16FF951800AE159B6
:10086800D8B005D0FD51F85FFE51F95B04D0000EF9
:10087800F96F000EF86F800EFFBF7F0EE16FF85121
:10088800FF5DF951800AE159D8B007D0FF51F85FF0
:10089800000EFFBFFF0EF95B04D0000EF96F000ECB
:1008A800F86FF6A522D0030EF615E16F000EF715C6
:1008B800E26FE151E211D8B408D0DAC0D9FFDBC049
:1008C800DAFF2D0EDF6EDA4BDB2BF851F911D8B4B5
:1008D80031D0DAC0D9FFDBC0DAFF300EDF6EDA4B79
:1008E800DB2BF807D8A0F907F0D7F851F911D8B4DD
:1008F8000FD0DAC0D9FFDBC0DAFF200EDF6EDA4B8B
:10090800DB2BF807D8A0F907F851F911D8A4F1D7CB
:10091800030EF615E16F000EF715E26FE151E211D3
:10092800D8B408D0DAC0D9FFDBC0DAFF2D0EDF6EED
:10093800DA4BDB2BDCC0F6FFDDC0F7FFDC4BDD2B31
:100948000800F5CFFFF0FF51D8A410EF00F0DAC08F
:10095800D9FFDBC0DAFF000EDF6E12003D6E3DAE40
:1009680001D13D6C3D50800A120FD8A091D0000EE5
:10097800256E030E246E000E1D6E0A0E1C6E000EF0
:10098800176E640E166E3D50146E156A14BE150669
:10099800B5EC0EF014C01AF015C01BF032EC0EF0D6
:1009A800090E1A24226E000E1B20236E2EEC11F065
:1009B8002C0E2224F66E5F0E2320F76E0900F5CF69
:1009C8002BF00900F5CF2CF00A00F5CF2DF0000E22
:1009D8001D6E640E1C6E3D501A6E1B6A1ABE1B06F5
:1009E80032EC0EF0120E1A24226E000E1B20236E1B
:1009F800000E256E030E246E2EEC11F02C0E222410
:100A0800F66E5F0E2320F76E0900F5CF28F0090077
:100A1800F5CF29F00A00F5CF2AF003EC0CF028C036
:100A28003AF029C03BF02AC03CF03AC028F03BC05D
:100A380029F03CC02AF0000E256E030E246E000E2D
:100A4800176E0A0E166E3D50146E156A14BE150602
:100A5800B5EC0EF014C022F015C023F02EEC11F006
:100A68002C0E2224F66E5F0E2320F76E0900F5CFB8
:100A78002BF00900F5CF2CF00A00F5CF2DF003EC90
:100A88000CF028C037F029C038F02AC039F012001D
:100A98003D50800A750FD8A053D0000E1D6E0A0E67
:100AA8001C6E3D501A6E1B6A1ABE1B0632EC0EF005
:100AB800090E1A24226E000E1B20236E000E256ECE
:100AC800030E246E2EEC11F02C0E2224F66E5F0E0F
:100AD8002320F76E0900F5CF28F00900F5CF29F09B
:100AE8000A00F5CF2AF0000E256E030E246E000EC4
:100AF800176E0A0E166E3D50146E156A14BE150652
:100B0800B5EC0EF014C022F015C023F02EEC11F055
:100B18002C0E2224F66E5F0E2320F76E0900F5CF07
:100B28002BF00900F5CF2CF00A00F5CF2DF003ECDF
:100B38000CF028C037F029C038F02AC039F012006C
:100B48003D50030D2C0EF324F66E5F0EF420F76E65
:100B58000900F5CF37F00900F5CF38F00A00F5CFD6
:100B680039F012003D50800A120FD8A091D0000E23
:100B7800256E030E246E000E1D6E0A0E1C6E000EEE
:100B8800176E640E166E3D50146E156A14BE150667
:100B9800B5EC0EF014C01AF015C01BF032EC0EF0D4
:100BA800090E1A24226E000E1B20236E2EEC11F063
:100BB800050E2224F66E5F0E2320F76E0900F5CF8E
:100BC8002BF00900F5CF2CF00A00F5CF2DF0000E20
:100BD8001D6E640E1C6E3D501A6E1B6A1ABE1B06F3
:100BE80032EC0EF0120E1A24226E000E1B20236E19
:100BF800000E256E030E246E2EEC11F0050E222435
:100C0800F66E5F0E2320F76E0900F5CF28F0090075
:100C1800F5CF29F00A00F5CF2AF003EC0CF028C034
:100C28003AF029C03BF02AC03CF03AC028F03BC05B
:100C380029F03CC02AF0000E256E030E246E000E2B
:100C4800176E0A0E166E3D50146E156A14BE150600
:100C5800B5EC0EF014C022F015C023F02EEC11F004
:100C6800050E2224F66E5F0E2320F76E0900F5CFDD
:100C78002BF00900F5CF2CF00A00F5CF2DF003EC8E
:100C88000CF028C037F029C038F02AC039F012001B
:100C98003D50800A750FD8A053D0000E1D6E0A0E65
:100CA8001C6E3D501A6E1B6A1ABE1B0632EC0EF003
:100CB800090E1A24226E000E1B20236E000E256ECC
:100CC800030E246E2EEC11F0050E2224F66E5F0E34
:100CD8002320F76E0900F5CF28F00900F5CF29F099
:100CE8000A00F5CF2AF0000E256E030E246E000EC2
:100CF800176E0A0E166E3D50146E156A14BE150650
:100D0800B5EC0EF014C022F015C023F02EEC11F053
:100D1800050E2224F66E5F0E2320F76E0900F5CF2C
:100D28002BF00900F5CF2CF00A00F5CF2DF003ECDD
:100D38000CF028C037F029C038F02AC039F012006A
:100D48003D50030D050EF324F66E5F0EF420F76E8A
:100D58000900F5CF37F00900F5CF38F00A00F5CFD4
:100D680039F01200000E936E000E956E000E946E10
:100D780073EC11F079EC11F06BEC11F09D8A9D8CFD
:100D88009E9A9E989E9CF294F28EF28CF29AF1941E
:100D9800C294C296C298C29AC280300EC112C15083
:100DA800F00B0B09C16EC08EC086C088C08AC050C7
:100DB800F80B0609C06E7C0E1C6E5F0E1D6E37ECBC
:100DC80010F0680E1C6E5F0E1D6E37EC10F021EEF1
:100DD80083F011EE69F00F0EDBCFE3FFE806FCE2CB
:100DE800690E146E010E156E4EEC0FF08A967FECAC
:100DF80011F062EC11F0000EBE6EC282000E146E8D
:100E0800010E156E000E176E000E166E000E196E8E
:100E1800640E186E18EC11F0000E1C6E010E1D6E9B
:100E28007BEC10F0000E1F6E010E206EF40E216E8A
:100E38005F0E226EE4EC0CF01FC07FF120C080F141
:100E4800000E1F6E000E206EF40E216E5F0E226ED5
:100E5800E4EC0CF01FC064F120C065F1000E1F6EB9
:100E6800000E206EF40E216E5F0E226EE4EC0CF084
:100E78001FC081F120C082F17FC114F080C115F03C
:100E8800EC0E166E5F0E176E13EC10F01450151062
:100E9800D8A406D0530E1C6E5F0E1D6E37EC10F0F2
:100EA8007FC114F080C115F0F70E166E5F0E176E35
:100EB80013EC10F014501510D8A43ED081C114F0D2
:100EC80082C115F0FA0E166E5F0E176E13EC10F055
:100ED80014501510D8A411D0000E0101786F010E1E
:100EE800776F690E146E010E156E4EEC0FF0AE0E94
:100EF8001C6E5F0E1D6E37EC10F081C114F082C1BC
:100F080015F0FC0E166E5F0E176E13EC10F01450F1
:100F18001510D8A411D0000E0101766F010E756F5F
:100F2800690E146E010E156E4EEC0FF0BD0E1C6EA0
:100F38005F0E1D6E37EC10F07FC114F080C115F004
:100F4800F00E166E5F0E176E13EC10F0145015109D
:100F5800D8A43ED081C114F082C115F0FA0E166EE5
:100F68005F0E176E13EC10F014501510D8A411D0A2
:100F7800000E0101786F000E776F690E146E010E76
:100F8800156E4EEC0FF08E0E1C6E5F0E1D6E37EC5C
:100F980010F081C114F082C115F0FC0E166E5F0EC0
:100FA800176E13EC10F014501510D8A411D0000EC1
:100FB8000101766F000E756F690E146E010E156EC5
:100FC8004EEC0FF09E0E1C6E5F0E1D6E37EC10F08F
:100FD8007FC114F080C115F0E80E166E5F0E176E13
:100FE80013EC10F014501510D8A40ED0CC0E1C6EB3
:100FF8005F0E1D6E37EC10F081C128F082C129F018
:101008007DEC0CF02850BE6E7FC114F080C115F045
:10101800E20E166E5F0E176E13EC10F014501510DA
:10102800D8A4ECD681C114F082C115F0FA0E166E60
:101038005F0E176E13EC10F014501510D8A4DED6FE
:1010480093C11CF094C11DF0FCEC10F01CC028F0FA
:101058001DC029F01EC02AF02C0E2B6E080E2C6E17
:101068003B0E2D6E03EC0CF028C066F129C067F129
:101078002AC068F1790E0001DA6F010EDB6FD90E14
:10108800DC6F5F0EDD6F66C1DEF067C1DFF068C13F
:10109800E0F009EC00F0790E1C6E010E1D6E37ECC5
:1010A80010F0ACD60001CA6F6D0E0001CA659FD062
:1010B800000E256E030E246E000E1D6E0A0E1C6EA9
:1010C800000E176E640E166ECAC014F0156AB5ECE1
:1010D8000EF014C01AF015C01BF032EC0EF0090E19
:1010E8001A24226E000E1B20236E2EEC11F02C0EFB
:1010F8002224F66E5F0E2320F76E0900F5CF2BF041
:101108000900F5CF2CF00A00F5CF2DF0000E1D6E6A
:10111800640E1C6ECAC01AF01B6A32EC0EF0120E76
:101128001A24226E000E1B20236E000E256E030E5D
:10113800246E2EEC11F02C0E2224F66E5F0E232066
:10114800F76E0900F5CF28F00900F5CF29F00A005D
:10115800F5CF2AF003EC0CF028C0C7F029C0C8F07E
:101168002AC0C9F0000E256E030E246E000E176EFD
:101178000A0E166ECAC014F0156AB5EC0EF014C04B
:1011880022F015C023F02EEC11F02C0E2224F66E5E
:101198005F0E2320F76E0900F5CF2BF00900F5CF7D
:1011A8002CF00A00F5CF2DF0C7C028F0C8C029F0F0
:1011B800C9C02AF003EC0CF028C0C4F029C0C5F05F
:1011C8002AC0C6F0C4C028F0C5C029F0C6C02AF09D
:1011D800000E2B6E000E2C6E3F0E2D6E03EC0CF0E5
:1011E80028C037F029C038F02AC039F012000A0E9A
:1011F8000001CA6563D0000E256E030E246E000E32
:10120800176E0A0E166ECAC014F0156AB5EC0EF009
:1012180014C022F015C023F02EEC11F02C0E22245D
:10122800F66E5F0E2320F76E0900F5CF2BF009004C
:10123800F5CF2CF00A00F5CF2DF0000E1D6E0A0E2A
:101248001C6ECAC01AF01B6A32EC0EF0090E1A2482
:10125800226E000E1B20236E000E256E030E246ED8
:101268002EEC11F02C0E2224F66E5F0E2320F76E62
:101278000900F5CF28F00900F5CF29F00A00F5CFCD
:101288002AF003EC0CF028C0C7F029C0C8F02AC027
:10129800C9F0C7C028F0C8C029F0C9C02AF0000E9C
:1012A8002B6E000E2C6E3F0E2D6E03EC0CF028C03A
:1012B80037F029C038F02AC039F012000001CA51AD
:1012C800030D2C0EF324F66E5F0EF420F76E090062
:1012D800F5CF28F00900F5CF29F00A00F5CF2AF05C
:1012E800000E2B6E000E2C6E3F0E2D6E03EC0CF0D4
:1012F80028C037F029C038F02AC039F01200CDC014
:101308003AF03B6A3C6A0001CC353A3601E33B804F
:101318003A50D36FD0C03AF03B6A3C6ACF353A3680
:1013280001E33B803A50D26FD351D8B40BD0D2519D
:10133800D35DD8B00ED0D3510008D2253A6E180E1E
:101348003A6407D0CEC0CBF0CFC0CCF0D0C0CDF03F
:101358001200D251D8B40BD0D351D25DD8B00ED030
:10136800D2510008D3253A6E180E3A6407D0CBC084
:10137800CBF0CCC0CCF0CDC0CDF01200060ED16FB2
:10138800CDBFD18FD0BFD18DCC8FFF0ECB17FF0E25
:10139800CC17000ECD17CF8FFF0ECE17FF0ECF172D
:1013A800000ED017D251D35DD8B01BD0D890CE370D
:1013B800CF37D037D207D351D219D8B40DD0D107EF
:1013C800D1C03AF0070E3A16D8B406D0EFD7D89065
:1013D800CD33CC33CB33D32BD251D319D8B41FD080
:1013E800F6D7D351D25DD8B01AD0D890CB37CC37F6
:1013F800CD37D307D351D219D8B40DD0D107D1C026
:101408003AF0070E3A16D8B406D0EFD7D890D033B2
:10141800CF33CE33D22BD251D319D8A4F7D7D1AFEB
:101428000CD0FF0ECB1BFF0ECC1BFF0ECD1B010EED
:10143800CB27000ECC23000ECD23D1AD0CD0FF0E50
:10144800CE1BFF0ECF1BFF0ED01B010ECE27000EAA
:10145800CF23000ED023000ED16FCB51CE27CC5115
:10146800CF23CD51D023D0AF0ED0FF0ECE1BFF0E11
:10147800CF1BFF0ED01B010ECE27000ECF23000E70
:10148800D023010ED16FCEC014F0CFC015F0D0C05C
:1014980016F0D3C017F0D1C018F03CEC0DF014C012
:1014A800CBF015C0CCF016C0CDF0120016C01AF063
:1014B8001B6A1C6A15341A3601E31B801A50226E07
:1014C8002250D8A409D0000E146E000E156E000E1E
:1014D800166E000E176E120019C01AF01B6A1C6AED
:1014E80018341A3601E31B801A50216E2150D8A4F3
:1014F80009D0000E146E000E156E000E166E000E4A
:10150800176E1200158EFF0E1416FF0E1516000E1C
:101518001616188EFF0E1716FF0E1816000E19163F
:10152800000E1D6E000E1E6E000E1F6E000E206E49
:101538007F0E225E2150980F225E180E216ED890E1
:101548001D361E361F3620361750145C1850155895
:1015580019501658D8A007D01750145E1850155AAD
:101568001950165A1D80D890143615361636212E65
:10157800E6D722AE16D02250800A970FD8B009D0ED
:10158800000E146E000E156E000E166E000E176E0D
:101598001200D89020321F321E321D32223EF9D757
:1015A80015D0170E22640FD0000E146E000E156EA3
:1015B800000E166E000E176E1200D8901D361E36DD
:1015C8001F36203622062250D8A4F7D71DC014F0A3
:1015D8001EC015F01FC016F020C017F012001634F8
:1015E80017341F6E1F50D8A409D0000E146E000EB9
:1015F800156E000E166E000E176E120019341A348E
:101608001E6E1E50D8A409D0000E146E000E156E62
:10161800000E166E000E176E1200168EFF0E1416B0
:10162800FF0E1516FF0E1616000E1716198EFF0E52
:101638001716FF0E1816FF0E1916000E1A16000EB2
:101648001A6E000E1B6E000E1C6E000E1D6E7F0EB5
:101658001F5E1E50A00F1F5E200E1E6ED8901A36F9
:101668001B361C361D361750145C18501558195067
:1016780016581A501758D8A009D01750145E185089
:10168800155A1950165A1A50175A1A80D8901436E3
:101698001536163617361E2EE1D71FAE16D01F5038
:1016A800800A9F0FD8B009D0000E146E000E156E78
:1016B800000E166E000E176E1200D8901D321C32E6
:1016C8001B321A321F3EF9D715D01F0E1F640FD0D8
:1016D800000E146E000E156E000E166E000E176EBC
:1016E8001200D8901A361B361C361D361F061F509E
:1016F800D8A4F7D71AC014F01BC015F01CC016F0F8
:101708001DC017F01200C6C0C8F00001C96BCA6B33
:10171800C535C83701E3C981C851D26FD251D8A4A1
:1017280009D0000EC46F000EC56F000EC66F000E04
:10173800C76F1200170EC86FC4C0C9F0C5C0CAF081
:10174800C6C0CBF0C829CC6F04D0D890CB33CA33ED
:10175800C933CC2FFAD70001C951CD6FC58FFF0E01
:10176800C417FF0EC517000EC617C451CE6FC5515A
:10177800CF6FC651D06FD16B8E0ED25FD2AF16D05D
:10178800D251800A8F0FD8B009D0000EC46F000E56
:10179800C56F000EC66F000EC76F1200D890D13308
:1017A800D033CF33CE33D23FF9D715D0170ED26509
:1017B8000FD0000EC46F000EC56F000EC66F000E6E
:1017C800C76F1200D890CE37CF37D037D137D2076E
:1017D800D251D8A4F7D7CD51D8B408D0D11FD01F33
:1017E800CF1FCE6D000ECF23D023D123CEC0C4F09F
:1017F800CFC0C5F0D0C0C6F0D1C0C7F012002AC013
:101808002EF02F6A306A29342E3601E32F802E50AD
:10181800316E3150D8A407D0000E286E000E296E04
:10182800000E2A6E12002DC02EF02F6A306A2C345A
:101838002E3601E32F802E50366E3650D8A407D0AE
:10184800000E286E000E296E000E2A6E1200365009
:101858007B0F31262AC036F02D50361A800E3616E8
:10186800298E2C8EFF0E2B16FF0E2C16000E2D1611
:10187800000E326E000E336E000E346E070E356E9B
:1018880028A006D02B5032262C5033222D5034223B
:10189800D8902A3229322832D8902B362C362D3639
:1018A800352EEED7090E356E28A006D02B503226DD
:1018B8002C5033222D503422D8902A322932283203
:1018C800D890343233323232352EEED732C014F05B
:1018D80033C015F034C016F031C017F036C018F018
:1018E8003CEC0DF014C028F015C029F016C02AF001
:1018F800120002D0284A292A28C0D9FF29C0DAFFB5
:10190800200EDE18D8B4F6D728C0D9FF29C0DAFFD0
:10191800090EDE18D8B4EED7000E2E6E000E2D6E0E
:10192800000E2C6E28C0D9FF29C0DAFF2D0EDE1854
:10193800D8A402D02C2A24D028C0D9FF29C0DAFF85
:101948002B0EDE18D8A41ED01BD02DC022F02EC01E
:1019580023F0000E256E0A0E246E2EEC11F028C01E
:10196800D9FF29C0DAFFDF502A6E2B6A22502A26B7
:1019780023502B22D00E2A242D6EFF0E2B202E6EE4
:10198800284A292A28C0D9FF29C0DAFFDF5053EC9A
:1019980011F0D8B0DAD72C50D8B40DD02DC02AF019
:1019A8002EC02BF02A1E2B1E2A4A2B2A2AC028F0CA
:1019B8002BC029F012002DC028F02EC029F01200EB
:1019C8001F502010D8A404D03EC01FF03FC020F004
:1019D8001F502010D8A405D0000E1F6E000E206ED8
:1019E80012001FC018F020C019F021C01AF022C040
:1019F8001BF079EC0FF018501F26195020221FC039
:101A0800D9FF20C0DAFFDF50D8A409D0000E3E6EFF
:101A1800000E3F6E3EC01FF03FC020F012001FC0F6
:101A280018F020C019F021C01AF022C01BF0A1EC58
:101A38000FF018501F243E6E195020203F6E3EC0F4
:101A4800D9FF3FC0DAFFDF50D8B409D03EC0D9FF74
:101A58003FC0DAFF000EDF6E3E4A3F2A04D0000E78
:101A68003E6E000E3F6E1FC01FF020C020F0120017
:101A78001750D8B405D0145015101610D8A40CD08F
:101A8800000E146E000E156E000E166E1200172A48
:101A9800D890163215321432000E1414196E000E36
:101AA80015141A6EFE0E16141B6E19501A101B1000
:101AB800D8B40CD0ECD7172A010E1426000E152224
:101AC800000E1622D890163215321432000E141455
:101AD800196E000E15141A6EFF0E16141B6E19508F
:101AE8001A101B10D8B406D0E6D71706D8901436AB
:101AF8001536163615BE03D0020E1760F6D717A096
:101B0800159ED8901732175016121850D8A4168E52
:101B180014C014F015C015F016C016F01200060017
:101B2800FACF02F0FBCF03F0E9CF04F0EACF05F0DB
:101B3800E1CF06F0E2CF07F0D9CF08F0DACF09F00D
:101B4800F3CF0AF0F4CF0BF0F6CF0CF0F7CF0DF08F
:101B5800F8CF0EF0F5CF0FF04CC010F04DC011F0DB
:101B68004EC012F04FC013F0EEEC0FF0BDEC10F0C9
:101B78009EAC06D0C3CF93F1C4CF94F1C2829E9C91
:101B880013C04FF012C04EF011C04DF010C04CF011
:101B98000FC0F5FF0EC0F8FF0DC0F7FF0CC0F6FF31
:101BA8000BC0F4FF0AC0F3FF09C0DAFF08C0D9FF71
:101BB80007C0E2FF06C0E1FF05C0EAFF04C0E9FF75
:101BC80003C0FBFF02C0FAFF4C92110016AE16D0FC
:101BD80014C01AF015C01BF016C01CF01A1E1B1EEC
:101BE8001C1E1A2A000E1B221C22000E1A24146E18
:101BF800000E1B20156E800E1C20166E19AE16D016
:101C080017C01AF018C01BF019C01CF01A1E1B1EB2
:101C18001C1E1A2A000E1B221C22000E1A24176EE4
:101C2800000E1B20186E800E1C20196E000E141A50
:101C3800000E151A800E161A000E171A000E181A22
:101C4800800E191A1750145C185015581950165848
:101C5800D8B002D0D8901200D8801200000E1F6EA3
:101C68001DAE06D01C6C1D1ED8B01D2A010E1F6E9D
:101C78001BAE06D01A6C1B1ED8B01B2A010E1F1AE9
:101C8800000E216E000E206E1C501D10D8B41CD002
:101C9800010E1E6E04D0D8901C361D361E2A1DAEAD
:101CA800FAD7D890203621361C501A5C1D501B5884
:101CB800D8A005D01C501A5E1D501B5A2080D89001
:101CC8001D321C321E2EEDD71F50D8B404D0206C04
:101CD800211ED8B0212A20C01AF021C01BF0120002
:101CE800000E1C6E000E1D6E000E1E6E000E1F6E86
:101CF800185019101A101B10D8B42AD0010E206ED3
:101D080006D0D890183619361A361B36202A1BAE3C
:101D1800F8D7D8901C361D361E361F361850145C5E
:101D2800195015581A5016581B501758D8A009D0D2
:101D38001850145E1950155A1A50165A1B50175A33
:101D48001C80D8901B321A3219321832202EE1D753
:101D58001CC014F01DC015F01EC016F01FC017F0EF
:101D68001200000E196E15AE06D0146C151ED8B0F0
:101D7800152A010E196E17AE04D0166C171ED8B0AE
:101D8800172A16501710D8B418D0010E186E04D0A0
:101D9800D89016361736182A17AEFAD71650145C8C
:101DA80017501558D8A004D01650145E1750155A5D
:101DB800D89017321632182EF1D71950D8B404D04B
:101DC800146C151ED8B0152A14C014F015C015F0DF
:101DD8001200185019101A101B10D8B424D0010E74
:101DE8001C6E06D0D890183619361A361B361C2A9F
:101DF8001BAEF8D71850145C195015581A501658BD
:101E08001B501758D8A008D01850145E1950155AEE
:101E18001A50165A1B50175AD8901B321A321932B8
:101E280018321C2EE7D714C014F015C015F016C0D0
:101E380016F017C017F012008E0E246E06D0D89038
:101E48001F321E321D321C32242A000E1C14206E32
:101E5800000E1D14216E000E1E14226EFF0E1F149C
:101E6800236E2050211022102310D8A4E8D71CC0BC
:101E780014F01DC015F01EC016F024C017F0000E97
:101E8800186E3CEC0DF014C01CF015C01DF016C007
:101E98001EF012008A80000E186E000E176E18BE13
:101EA80003D018501EE119D0D8901734D96E1834C1
:101EB800DA6E1450D9261550DA22DF50166E163A0B
:101EC8008A501618EF0B16188A6E8A828A92174A59
:101ED800182A18BEE9D7185004E1080E175CD8A0D4
:101EE800E3D78A948A848A901200000E1E6E000E30
:101EF8001D6E04D0184A192A1D4A1E2A18C0D9FF77
:101F080019C0DAFFDF50D8B413D01AC014F01BC0C0
:101F180015F018C0D9FF19C0DAFFDF501C6E1C502D
:101F2800166E176ADEEC10F014501510D8A4E2D71C
:101F38001DC018F01EC019F01200000E1E6E000E13
:101F48001D6E04D0184A192A1D4A1E2A18C0D9FF26
:101F580019C0DAFFDF50D8B413D01AC014F01BC070
:101F680015F018C0D9FF19C0DAFFDF501C6E1C50DD
:101F7800166E176ADEEC10F014501510D8B4E2D7BC
:101F88001DC018F01EC019F01200080EF66E230EC0
:101F9800F76E000EF86E0900F5CF4AF00900F5CF8C
:101FA8004BF001EE83F0760EEE6AE806FDE100EEF6
:101FB80060F0640EEE6AE806FDE100EE3EF00C0EFD
:101FC800EE6AE806FDE14C904C92000EF86E0001B6
:101FD800B6EF06F09EAA120040504110D8A41DD0BA
:101FE800950E4224D96E010E4320DA6EAECFDFFF84
:101FF800950E4224D96E010E4320DA6E0A0EDE18C1
:10200800D8B403D0424A432A08D0000E436E000ECB
:10201800426E000E416E010E406E9E9A120004D070
:10202800144A152A164A172A14C0D9FF15C0DAFF10
:10203800DF50186E16C0F6FF17C0F7FF0800F550FE
:1020480000081824196E1950D8A407D014C0D9FF55
:1020580015C0DAFFDF50D8A4E3D71950146E156AFB
:1020680014BE15061200600E146E000E156E1CC00C
:1020780016F01DC017F059EC10F0000E4B6E000E54
:102088004A6E9D884A504B10D8B4FCD7600E146E27
:10209800000E156E000E176E000E166E000E196EED
:1020A800640E186E18EC11F0120014C018F015C068
:1020B80019F004D0184A192A164A172A16C0F6FF2A
:1020C80017C0F7FFF86A18C0D9FF19C0DAFF070E62
:1020D800F76403D00800F55005D0F6CFE1FFF7CF3D
:1020E800E2FFE750DF6EDF50D8B41200E3D740506C
:1020F8004110D8B412001CC014F01DC015F0950E84
:10210800166E010E176E59EC10F0950E146E010E36
:10211800156E000E176E000E166E000E196E640E08
:10212800186E18EC11F0000E416E000E406E120091
:102138000001D751D811D911D8B406D0000ED71B39
:10214800000ED81B800ED91BD4C0CBF0D5C0CCF064
:10215800D6C0CDF0D7C0CEF0D8C0CFF0D9C0D0F01F
:1021680083EC09F0CBC0D4F0CCC0D5F0CDC0D6F00C
:1021780012009EA81200600E4424D96E000E45205D
:10218800DA6EDF50D8A40BD0000E4B6E010E4A6EEB
:10219800000E456E000E446E9D989E981200600ECB
:1021A8004424D96E000E4520DA6EDF50AD6E444AE5
:1021B800452A120014C0F6FF15C0F7FF0800F550B5
:1021C8001618D8A405D014C014F015C015F01200C4
:1021D80014C0F6FF15C0F7FF144A152A0800F55079
:1021E8000009D8A4E7D7000E146E000E156E120071
:1021F800000E1F6E1DAE06D01C6C1D1ED8B01D2A09
:10220800010E1F6E1CC014F01DC015F0166A8E0E4C
:10221800176E1FC018F03CEC0DF014C01CF015C070
:102228001DF016C01EF0120014C01AF015C01BF0E5
:1022380008D01AC0D9FF1BC0DAFF16C0DFFF1A4A40
:102248001B2A1806D8A019061828F3E11928D8B4AB
:102258001200EFD722502402F3CF26F0F4CF27F054
:1022680022502502F350272623502402F350272614
:1022780026C022F027C023F01200145015101610A3
:10228800D8B406D0000E141A000E151A800E161AAD
:1022980014C014F015C015F016C016F01200166E12
:1022A800000E156E3A0E166005D02F0E166402D079
:1022B800010E156E15C014F014301200CB68CA96C2
:1022C800CA98CA9ACA9CCA84FC0ECA161200080E7A
:1022D800AF6E020EB06EB89AB898B8861200AC9C71
:1022E800AC8AAC98AC96AC841200AB8EAB9CAB9A23
:1022F800AB88AB961200BD50F00B0C09BD6E1200F6
:022308000100D2
:105EDC0000010000000A00000064000000E803005C
:105EEC000010270000A086010040420F0080969809
:105EFC000000E1F50500CA9A3B00803F00204100FC
:105F0C00C842007A44401C4650C347247449971831
:105F1C004BBCBE4C6B6E4E03155079AD60F34971A2
:105F2C0000803FCDCC3DD7233C12833AB7D138C645
:105F3C002737388635C0D633CC2B32708930E7DB27
:105F4C002EE53C1E42A20D436F6E74726F6C6C6535
:105F5C0072202D2056302E302E300A005374617270
:105F6C0074696E672073797374656D2E2E2E0A001A
:105F7C004D4F544F5220434F4E54524F4C4C455260
:105F8C000A004D3120494E312064697361626C65A1
:105F9C000A004D3120494E322064697361626C6590
:105FAC000A004D3120494E3120656E61626C650AE4
:105FBC00004D3120494E3220656E61626C650A00DD
:105FCC0070776D20656E61626C65640A0025302EF9
:105FDC00336620410A00696D6561730070776D004E
:105FEC0069646E0064697300200A00656E003100FC
:035FFC0032000070
:020000040020DA
:08000000FFFFFFFFFFFFFFFF00
:020000040030CA
:0E000000000C1F1EFF0380FF0FC00FE00F401B
:00000001FF
